:020000040800F2
:100000001002002051500008FD4D0008FF4D00086F
:10001000014E0008034E0008054E000800000000D5
:100020000000000000000000000000001F11000898
:10003000074E000800000000D9100008094E000813
:10004000B1500008B5500008B9500008BD50000874
:10005000C1500008C5500008C9500008CD50000824
:10006000D1500008D5500008D9500008DD500008D4
:10007000E1500008E5500008114E00081B4E000832
:10008000E9500008ED500008F1500008F550000854
:10009000F9500008FD500008015100080551000802
:1000A000095100080D5100081151000815510008B0
:1000B000195100081D510008254E00082151000863
:1000C00025510008295100082D5100083151000820
:1000D000355100082F4E0008395100083D510008E5
:1000E0004151000845510008495100082DE9F04FE1
:1000F00085B004000D0016001F00DDF83880DDF823
:100100003C90B6B2B00000F057FD8346BBF1000F43
:100110000DD0542000F050FD8246BAF1000F02D0FD
:10012000CAF830B005E0584600F0D3FD01E00020E9
:100130008246BAF1000F14D000200390CDF808A039
:10014000CDF80490CDF800803B00B6B23200290013
:10015000200000F00DF8504600F06EF801200490E9
:1001600002E05FF0FF300490049805B0BDE8F08F26
:100170002DE9F14F0C0015001E000A9FDDF82C80C0
:10018000DDF83090D9F8300000EB8500001F824682
:100190005FEADA0A5FEACA0A1AF00700002807D005
:1001A000502080F31188BFF34F8FBFF36F8FFEE7AE
:1001B00000208346BBF1100F0CD214F80B0009EBA2
:1001C0000B0181F8340014F80B00002802D01BF159
:1001D000010BEFE7002089F84300072F01D3062029
:1001E0000700C9F82C70C9F844700020C9F848000D
:1001F00019F1040000F031FE19F1180000F02DFE95
:10020000C9F81090D7F10700C9F81800C9F8249070
:100210000020C9F84C00002089F8500032000099F5
:10022000504600F05BFEC9F80000B8F1000F01D0A5
:10023000C8F80090BDE8F18F10B5040000F0B7FEDB
:10024000DFF8F8040068401CDFF8F0140860DFF8FD
:100250008405006800280AD1DFF878050460DFF81B
:10026000DC040068012811D100F0CEFA0EE0DFF8BE
:1002700068050068002809D1E06ADFF858150968A8
:10028000C96A884202D3DFF84C050460DFF84C05E8
:100290000068401CDFF844150860DFF86805006856
:1002A0000121E26A91400843DFF858150860211DDA
:1002B000DFF8AC05E26A14235A43104400F0D0FD85
:1002C00000F092FEDFF81005006800280FD0DFF87C
:1002D00004050068C06AE16A884208D25FF0805075
:1002E000DFF804170860BFF34F8FBFF36F8F10BDA7
:1002F00038B504000025002C15D0DFF8140600687E
:10030000002807D0502080F31188BFF34F8FBFF330
:100310006F8FFEE700F047F80021200000F0E8FBB7
:1003200000F049F80500002D08D15FF08050DFF89B
:1003300098170860BFF34F8FBFF36F8F31BD1CB5A7
:10034000DFF88C0701900020009000238022DFF866
:1003500084170FF28D40FFF7C9FE0400012C16D15F
:10036000502080F31188BFF34F8FBFF36F8F5FF082
:10037000FF30DFF8641708600120DFF85C140860C4
:100380000020DFF85C17086000F0CDFD0AE014F1F2
:10039000010F07D1502080F31188BFF34F8FBFF3B7
:1003A0006F8FFEE713BDDFF868050068401CDFF8BB
:1003B00060150860704770B500240025DFF850050F
:1003C0000068002807D1502080F31188BFF34F8FB9
:1003D000BFF36F8FFEE700F0EAFDDFF83405006839
:1003E000401EDFF82C150860DFF82405006800289F
:1003F0005CD1DFF848030068002857D0DFF8CC064E
:10040000006800282AD0DFF8C406C068C06804006D
:1004100014F1180000F04DFD201D00F04AFDDFF83A
:10042000E40300680121E26A91400843DFF8D41335
:100430000860211DDFF82804E26A14235A4310449F
:1004400000F00EFDE06ADFF88C130968C96A884283
:10045000D4D30120DFF81C170860CFE7002C01D0AF
:1004600000F03EFADFF874060668002E0ED000F0A9
:1004700021F8002803D00120DFF8F8160860761E66
:10048000002EF4D10020DFF854160860DFF8E406EF
:10049000006800280AD0012005005FF08050DFF8D6
:1004A00028160860BFF34F8FBFF36F8F00F09CFDDD
:1004B000280070BD2DE9F0410026DFF854040068E3
:1004C000002840F07F80DFF818060068471CDFF83E
:1004D00010060760002F24D1DFF8080600680068C6
:1004E000002807D0502080F31188BFF34F8FBFF34F
:1004F0006F8FFEE7DFF8EC0500688046DFF8E8055F
:100500000068DFF8E0150860DFF8DC05C0F800805F
:10051000DFF8D8050068401CDFF8D015086000F04F
:10052000DFF9DFF8B405006887423ED3DFF8B40591
:1005300000680068002805D15FF0FF30DFF89815EB
:10054000086032E0DFF89C050068C068C0680400FD
:1005500060680500AF4203D2DFF87C05056024E047
:10056000201D00F0A6FCA06A002803D014F118009A
:1005700000F09FFCDFF88C0200680121E26A9140E4
:100580000843A0490860211DDFF8D402E26A142361
:100590005A43104400F064FCE06A8E490968C96A55
:1005A0008842C3D301200600C0E7DFF8B4028949BE
:1005B0000968C96A142251434058022809D301200E
:1005C000060006E0DFF814050068401CDFF80C1593
:1005D0000860DFF8A0050068002801D001200600AF
:1005E0003000BDE8F081DFF828030068002804D05F
:1005F0000120DFF8801508602EE00020DFF8741578
:10060000086080490968B1FA81F1D1F11F01080041
:100610009349142202FB00F28958002907D1502186
:1006200081F31188BFF34F8FBFF36F8FFEE78C4AC2
:10063000142303FB00F31A4411004A6852684A600D
:100640004A6811F108039A4202D14A6852684A6026
:100650004968C9685F4A1160704738B504000D00E9
:10066000002C07D1502080F31188BFF34F8FBFF3C8
:100670006F8FFEE7DFF80805006810F11801200011
:1006800000F0FAFB0121280000F032FA31BD70B50C
:100690000400E068C0680500002D07D1502080F3F9
:1006A0001188BFF34F8FBFF36F8FFEE715F118006E
:1006B00000F0FFFB96480068002813D1281D00F0C9
:1006C000F8FB504800680121EA6A914008434D490F
:1006D0000860291D6248EA6A14235A43104400F056
:1006E000BFFB05E015F11801DFF8E00300F0B8FBEF
:1006F00038480068C06AE96A884206D201200600CC
:100700000120DFF87014086001E0002006003000CE
:1007100070BD002807D1502181F31188BFF34F8F9E
:10072000BFF36F8FFEE7DFF8C41309680160DFF8DD
:10073000481409684160704700000000C032002082
:10074000F8B504000D00002C07D1502080F311886B
:10075000BFF34F8FBFF36F8FFEE7002D07D15020FF
:1007600080F31188BFF34F8FBFF36F8FFEE700F068
:100770001EFCDFF86C030768286810F1010F02D136
:10078000002006001DE0DFF864030068216888424D
:1007900005D06068874202D30120060011E060683E
:1007A000381A296888420AD22868C01B616808186C
:1007B00028602000FFF7ADFF0020060001E00120C7
:1007C000060000F011FC3000F2BD0120DFF8A41398
:1007D00008607047B0320020CC320020DC320020AC
:1007E00010B5040000F040F81D4800680228F9D355
:1007F0005FF08050DFF88C130860BFF34F8FBFF3BA
:100800006F8FEFE7C832002010B500200400072CDE
:1008100008D21348142101FB04F1084400F00EFB38
:10082000641CF4E7DFF8600300F008FBDFF85C030A
:1008300000F004FBDFF8940200F000FB094800F030
:10084000FDFAA04800F0FAFADFF83C03DFF8941252
:100850000860DFF83803DFF83813086010BD0000C7
:10086000D02F00204832002038B5DFF82803006878
:1008700000282BD0FFF797FDDFF81C030068002845
:1008800001D1012400E00024FFF795FD002CECD1FC
:1008900000F08DFBDFF80003C068C0680500281D6C
:1008A00000F007FBDFF8D4020068401EDFF8CC122E
:1008B0000860DFF8E0020068401EDFF8D812086028
:1008C00000F092FB280000F002F8CEE731BD10B531
:1008D0000400206B00F0FDF9200000F0FAF910BDD3
:1008E000DFF8001209680968002905D15FF0FF31BF
:1008F000DFF8E421116009E0DFF8E8110968C96850
:10090000C96808004168DFF8D02111607047000015
:10091000E8320020DFF884120968002902D10121A1
:10092000080009E0DFF878120968002902D10221E5
:10093000080001E000210800704738B504002500D8
:10094000002C4ED0E86ADFF838120968C96A88427C
:1009500047D2A869002806D4DFF824020068C06ADC
:10096000D0F10700A8616869DFF83812EA6A142339
:100970005A43114488422FD1281D00F09AFA0028CA
:1009800011D1DFF82002E96A1422514340580028AF
:1009900009D1DFF8140200680121EA6A9140884316
:1009A000DFF804120860DFF8D8010068C06AE86266
:1009B000DFF8F40100680121EA6A91400843DFF89A
:1009C000E8110860291DDFF8DC01EA6A14235A43A4
:1009D000104400F045FA04E0DFF8A4010068C06AA2
:1009E000E86231BD0000000004ED00E070B50400D5
:1009F00025000026002C53D0DFF8840100688542D2
:100A000007D0502080F31188BFF34F8FBFF36F8F53
:100A1000FEE7A86C002807D1502080F31188BFF3AF
:100A20004F8FBFF36F8FFEE7A86C401EA864E86A83
:100A3000696C884234D0A86C002831D1281D00F0A0
:100A400038FA002811D1DFF85C01E96A1422514319
:100A50004058002809D1DFF8500100680121EA6AF6
:100A600091408843DFF840110860686CE862E86AEA
:100A7000D0F10700A861DFF8300100680121EA6ABF
:100A800091400843DFF820110860291DDFF81401A8
:100A9000EA6A14235A43104400F0E2F901200600E8
:100AA000300070BDDFF8D8000068002805D0DFF8FE
:100AB000D0000068816C491C8164DFF8C4000068C4
:100AC000704700005C32002004ED00E0343200206A
:100AD000E432002098500008E0320020D03200209C
:100AE000C4320020B4320020B8320020D8320020B6
:100AF000F8B504000D002048076821480068001D73
:100B000000F0D7F900280BD11D4800682649096874
:100B10000122C06A12FA00F031EA0000224908609E
:100B200014F1010F08D1002D06D015480068011DF1
:100B30001E4800F095F91BE0E01906001048006817
:100B40004660BE4207D20E480068011D104800688A
:100B500000F092F90CE00A480068011D1448006892
:100B600000F08AF913480068864201D211480660F5
:100B7000F1BD0000D4320020C4320020C032002079
:100B8000B032002004ED00E00C32002020320020C2
:100B9000B8320020BC32002048320020CC32002085
:100BA000E8320020D02F0020C83200205C32002024
:100BB000B4320020E03200202DE9F04104005FF063
:100BC0000008FFF7F0FB96480068002801D100F00C
:100BD000BDF89448006804426AD1002C15D09248B0
:100BE0000068041914F0070F0FD014F1080014F076
:100BF0000701441A14F0070F07D0502080F3118822
:100C0000BFF34F8FBFF36F8FFEE7002C50D08748A4
:100C10000068A0424CD3864806008548006805005D
:100C20006868A04205D22868002802D02E002D68EE
:100C3000F6E77B48006885423AD030687A4909680F
:100C4000084480462868306077480068400069683A
:100C5000091B884215D205EB0400070017F00700B6
:100C6000002807D0502080F31188BFF34F8FBFF3C7
:100C70006F8FFEE76868001B78606C60380000F0DA
:100C80009CF86A4800686968401A684908606748C3
:100C9000006868490968884203D264480068654969
:100CA000086068685F490968084368600020286038
:100CB000FFF781FB18F00700002807D0502080F3D1
:100CC0001188BFF34F8FBFF36F8FFEE74046BDE83B
:100CD000F08170B504002600002C36D05248006820
:100CE00040420644350068684E490968084207D109
:100CF000502080F31188BFF34F8FBFF36F8FFEE753
:100D00002868002807D0502080F31188BFF34F8F48
:100D1000BFF36F8FFEE7686842490968084214D044
:100D20002868002811D168683E49096888436860CE
:100D3000FFF739FB3D480068696808183B490860BF
:100D4000280000F03AF8FFF736FB70BD30B44FF4DE
:100D50004063394C220012F0070F05D0D21DD20893
:100D6000D2009B1A344CE3181100314C216000244E
:100D70002F4D6C605C1822002B4C2468121BD2088B
:100D8000D200274C22600024254D2D686C60002481
:100D9000234D2D682C600800141A4460204C2468F0
:100DA00004604468234D2C604468204D2C605FF043
:100DB00000441C4D2C6030BC704710B41C4B1A0012
:100DC0001368834201D21268FAE7110053680B449A
:100DD000834204D153684468E31853601000010053
:100DE00043680B441468A34211D113680C4C246867
:100DF000A34208D0436814686468E318436013682A
:100E00001B68036005E0064B1B68036001E0136884
:100E10000360824200D0106010BC704700000000E8
:100E20008432002090320020A05000088832002038
:100E30007C3200208C320020201F002010F108019D
:100E400041605FF0FF31816010F10801C16010F175
:100E500008010161002101607047002101617047B4
:100E600042684A6093688B6093685960916008613A
:100E700003685B1C0360704710B40B6813F1010F2B
:100E800002D10469220008E010F10804220054682D
:100E90002468A34201D35268F9E754684C604C6857
:100EA000A1608A60516008610468641C046010BC21
:100EB0007047010008698A684B689A604A688B68C5
:100EC0005A6042688A4201D18A68426000220A61FF
:100ED0000268521E0260006870470102001F5FF046
:100EE00080730360001F4B085B000360001F0FF25C
:100EF0000D03036014380260203870476B480068A7
:100F000010F1010F07D0502080F31188BFF34F8FED
:100F1000BFF36F8FFEE7502080F31188BFF34F8F30
:100F2000BFF36F8FFEE700B583B061480178019190
:100F3000FF21017001788DF800109DF8001011F06C
:100F400050015C4A117007215B4A11609DF8001046
:100F500009060AD558490968491E574A11609DF883
:100F6000001049008DF80010F0E7534909680902A4
:100F7000514A11605049096811F4E0614E4A11600C
:100F8000019901704D48006850F470004B490860A9
:100F90004A48006850F070404849086000F051F835
:100FA00000204249086000F0CAF800200EBD502021
:100FB00080F31188BFF34F8FBFF36F8F3B480068FA
:100FC000401C3A4908603948006801280BD13C4868
:100FD0000068000607D0502080F31188BFF34F8FC0
:100FE000BFF36F8FFEE7704730480068002807D1D5
:100FF000502080F31188BFF34F8FBFF36F8FFEE750
:101000002A480068401E29490860284800680028CE
:1010100002D1002080F31188704780B5502080F302
:101020001188BFF34F8FBFF36F8FFFF743FA00288C
:1010300003D05FF0805022490860002080F31188BF
:1010400001BD204800684FF47A71B0FBF1F0401EFA
:101050001D49086007201D4908607047EFF30582AD
:101060001000102811D31A4A1268125C11000A00ED
:10107000104B1B78D2B29A4207D2502282F31188C9
:10108000BFF34F8FBFF36F8FFEE70B4A1268114B10
:101090001B6813F4E0639A4207D2502282F311884E
:1010A000BFF34F8FBFF36F8FFEE770470000002044
:1010B00000E400E0EC320020A432002020ED00E04B
:1010C00004ED00E00400002014E000E010E000E087
:1010D000AC5000080CED00E0EFF30980BFF36F8F18
:1010E0001D4B1A6820E9F00F106008B54FF0500052
:1010F00080F31188BFF34F8FBFF36F8FFFF773FA41
:101100004FF0000080F31188BDE8084019680868B6
:10111000B0E8F00F80F30988BFF36F8F70470E4B74
:1011200019680868B0E8F00F80F30988BFF36F8F83
:101130004FF0000080F311884EF00D0E7047074805
:101140000068006880F3088862B661B6BFF34F8F0D
:10115000BFF36F8F00DF0000B032002008ED00E029
:1011600070B504000D001600002C01D1012040E0F4
:1011700094F83900002805D1002084F838002000B8
:1011800000F074FC242084F839002068C06830F432
:1011900000502168C860200000F047FB206800690B
:1011A00030F4904021680861206840697FF02A018E
:1011B0000840216848612068006900090001EDB21B
:1011C0002843216808612068C06830F4006030431B
:1011D0002168C8602068C06850F400502168C86069
:1011E0000020E063202084F83900202084F83A00B1
:1011F000002070BD73B50400150094F83900202854
:1012000041D10198002802D0ADB2002D01D10120BA
:101210003AE094F83800012801D1022034E001209E
:1012200084F8380001982062A584E5840020E063FA
:10123000212084F839000FF26530216B88620FF2AB
:101240009530216BC8620FF2F530216B08630020E6
:10125000216B486301A80600ADB22B002068021D77
:101260003168206B00F0D0FC7FF0400021680860FE
:10127000002084F838002068406950F08000216820
:101280004861002000E0022076BD73B5040015001F
:1012900094F83A00202851D10198002802D0ADB22C
:1012A000002D01D101204AE094F83800012801D135
:1012B000022044E0012084F838000198A062A5854E
:1012C0000020E063222084F83A000FF21930616BAD
:1012D00088620FF25930616BC8620FF26130616B46
:1012E00008630020616B486301A80600ADB22B00C3
:1012F00032682068011D606B00F086FC00200090C1
:1013000020680068009020684068009000980020E5
:1013100084F838002068C06850F480702168C86084
:101320002068406950F001002168486120684069E8
:1013300050F0400021684861002000E0022076BDA6
:1013400010B504002068C06830F4F0702168C860EF
:101350002068406940084000216848612068406971
:1013600000060FD5206840697FF0800108402168A1
:101370004861206B002805D00020216B4863206B5A
:1013800000F08FFC2068406940060FD52068406956
:101390007FF04001084021684861606B002805D05B
:1013A0000020616B4863606B00F07BFC0020E084F0
:1013B0000020E0850020E063202084F83A0020200F
:1013C00084F83900002010BD2DE9F843040020689E
:1013D00005682068C668206847695FF000085FF00C
:1013E000000915F00F008046B8F1000F07D1A806DC
:1013F00005D5B00603D5200000F0BFF986E0B8F1AE
:10140000000F73D0F80702D416F4907F6ED015F059
:101410000100C0B2002805D0F00503D5E06B50F004
:101420000100E063680708D517F00100C0B200288A
:1014300003D0E06B50F00200E063A80708D517F076
:101440000100C0B2002803D0E06B50F00400E0635C
:10145000280708D517F00100C0B2002803D0E06BC0
:1014600050F00800E063E06B00283ED0A80604D5E9
:10147000B00602D5200000F080F92068406980099C
:1014800010F001008146E06B000702D4B9F1000FB3
:1014900026D0200000F00BF92068406940061BD5DB
:1014A000206840697FF04001084021684861606B16
:1014B00000280DD00FF21920616B4863606B00F0BB
:1014C0000CFC002811D0606B616B496B88470CE005
:1014D000200000F021F808E0200000F01DF804E0F2
:1014E000200000F019F80020E0630FE0280605D581
:1014F000300603D5200000F0F7F807E0680605D5B0
:10150000700603D5200000F027F9FFE7BDE8F1835E
:10151000704770477047704770470100002291F88C
:101520003800012801D1022016E0012081F838009E
:10153000242081F839000868C06802007FF00C00A0
:10154000024052F008020868C260202081F8390089
:10155000002081F83800002070470100002291F837
:101560003800012801D1022016E0012081F838005E
:10157000242081F839000868C06802007FF00C0060
:10158000024052F004020868C260202081F839004D
:10159000002081F8380000207047000038B50400B2
:1015A000656A2068006880060FD40020E8842868F7
:1015B00040697FF080010840296848612868C06858
:1015C00050F040002968C86002E02800FFF7A0FF43
:1015D00031BD000038B50400656A2800FFF799FFA7
:1015E00031BD000038B50400656A206800688006D7
:1015F00017D40020E8852868C06830F48070296816
:10160000C860286840694008400029684861286827
:1016100040697FF04001084029684861202085F832
:101620003A002800FFF776FF31BD000038B504000E
:10163000656A2800FFF76FFF31BD000070B5040038
:101640000025666A30684069C00910F00100050095
:1016500096F83900212806D1002D04D00020F0840E
:10166000300000F019F830684069800910F001007E
:10167000050096F83A00222806D1002D04D000205B
:10168000F085300000F013F8F06B50F01000F063BC
:101690003000FFF741FF70BD0168C9687FF0C002EC
:1016A00011400268D160202180F83910704701682C
:1016B000C96831F490710268D160016849694908CC
:1016C000490002685161202180F83A1070470000FB
:1016D00038B50400656A0020E8850020E884280009
:1016E000FFF71AFF31BD0000010091F839002128F1
:1016F00030D18868B0F5805F11D1086A0200108887
:10170000C005C00D0B6858600869002803D1086A3D
:10171000801C086209E0086A401C086205E0086A4B
:10172000431C0B6200780B685860C88C401EC8844C
:1017300080B200280CD10868C0687FF08003184090
:101740000B68D8600868C06850F040000B68D8602B
:10175000002000E00220704710B504002068C06837
:101760007FF0400108402168C860202084F83900DB
:101770002000FFF7CDFE002010BD38B5040094F81E
:101780003A0022284FD1A068B0F5805F16D1A06A38
:1017900005002069002808D120684068C005C00DF8
:1017A0002880A06A801CA0621AE02068406800F0CF
:1017B000FF002880A06A401CA06211E02069002878
:1017C00006D1A06A411CA16221684968017007E046
:1017D000A06A411CA1622168496811F07F01017073
:1017E000E08D401EE08580B200281AD12068C068D4
:1017F0007FF0200108402168C8602068C06830F48C
:1018000080702168C86020684069400840002168F5
:101810004861202084F83A002000FFF77BFE00207A
:1018200002E0002000E0022032BD2DE9F843040070
:1018300000252068006930F44050E16808432168C1
:101840000861A0682169084361690843054320686D
:10185000C0685C49084028432168C8602068406926
:1018600030F44070A16908432168486120685649F6
:10187000884252D100F0A8FE814600F0A5FE8046C5
:1018800000F0A2FE070000F09FFE060000F09CFEA4
:10189000192101FB09F162689200B1FBF2F16422A7
:1018A000B1FBF2F1192202FB08F263689B00B2FB64
:1018B000F3F2192303FB07F36768BF00B3FBF7F3E9
:1018C0006427B3FBF7F3642707FB132212013232BC
:1018D0006423B2FBF3F212F0F00212EB01111922B1
:1018E00002FB06F263689B00B2FBF3F21923584334
:1018F00063689B00B0FBF3F06423B0FBF3F0642358
:1019000003FB1020000132306422B0FBF2F010F033
:101910000F0040182168886051E000F04AFE8146BF
:1019200000F047FE804600F044FE070000F041FE54
:10193000060000F03EFE192101FB09F162689200E9
:10194000B1FBF2F16422B1FBF2F1192202FB08F2C1
:1019500063689B00B2FBF3F2192303FB07F367688C
:10196000BF00B3FBF7F36427B3FBF7F3642707FB70
:101970001322120132326423B2FBF3F212F0F002AE
:1019800012EB0111192202FB06F263689B00B2FB05
:10199000F3F21923584363689B00B0FBF3F0642310
:1019A000B0FBF3F0642303FB10200001323064220B
:1019B000B0FBF2F010F00F00401821688860BDE81D
:1019C000F1830000F3E9FFFF0038014080B566486D
:1019D000006850F00100644908606348006810F036
:1019E0000100009000986148006850F080505F4905
:1019F00008605E48006810F0805000900098032056
:101A000000F0A8FE002200217FF00B0000F0A8FEED
:101A1000002200217FF00A0000F0A2FE0022002137
:101A20007FF0090000F09CFE002200217FF00400FE
:101A300000F096FE002200217FF0030000F090FEEF
:101A400000220F217FF0010000F08AFE00220F210A
:101A50005FF0FF3000F084FE45490968080030F06F
:101A6000E06050F000704249086001BD10B586B0DA
:101A7000040020683F49884273D13B48006850F415
:101A80008040394908603848006810F48040009070
:101A900000984FF4007001900220029003200490FF
:101AA00001A9354800F09EFE4FF4806001900020AF
:101AB00002900120039001A92F4800F093FE2F48C7
:101AC0002F49086000202E49486000202C4988607A
:101AD00080202B49C860002029490861002028493E
:101AE000486100202649886100202549C8612448B2
:101AF00000F04EF8002803D08921224801F0AEF909
:101B00001F4860631E4844621F4820490860102037
:101B10001E49486000201D49886080201B49C8601C
:101B200000201A490861002018494861002017491F
:101B3000886100201549C861144800F029F8002880
:101B400003D099210F4801F089F9104820630F480C
:101B5000446200220521252000F002FE252000F02D
:101B600012FE06B010BD0000181002401C1002400A
:101B700004000140003801400008014058000240C4
:101B8000E0300020584E000844000240243100207C
:101B900001000022002901D1012034E00868DFF8AB
:101BA000603318181423B0FBF3F080000864DFF8EA
:101BB0005403C863022081F821000868006802000D
:101BC0006FF30D1248688B681843CB6818430B6994
:101BD00018434B6918438B691843CB691843024378
:101BE00008680260002088620020C8620020086344
:101BF0000020486300208863012081F82100002034
:101C000081F82000002070472DE9F04104000D000C
:101C100016001F005FF0000894F82000012801D191
:101C200002203CE0012084F8200094F821000128E3
:101C30002ED1022084F821000020A06320680068D3
:101C400040084000216808603B0032002900200065
:101C500000F068F9E06A002806D02068006850F0BB
:101C60000E00216808600CE0206800687FF0040125
:101C70000840216808602068006850F00A00216868
:101C800008602068006850F001002168086004E0E6
:101C9000002084F82000022080464046C0B2BDE803
:101CA000F081010000200A6812687FF00E031A40DC
:101CB0000B681A600A681268520852000B681A60B2
:101CC00001220B6C9A40CB6B5A60012281F82120D3
:101CD000002281F82020C0B2704738B504000025EA
:101CE00094F82100022804D00420A06301200500FC
:101CF0004BE0206800687FF00E0108402168086012
:101D00002068006840084000216808602068DFF80B
:101D1000F811884201D1012028E02068DFF8EC1199
:101D2000884201D1102021E02068DFF8E4118842C8
:101D300002D14FF4807019E02068DFF8D811884292
:101D400002D14FF4805011E02068DFF8CC118842B6
:101D500002D15FF4803009E02068DFF8C0118842CA
:101D600002D15FF4801001E05FF08070DFF8B01105
:101D70000860012084F82100002084F82000606BB6
:101D8000002802D02000616B88472800C0B232BD15
:101D900070B50400E06B0568206806680420216CBB
:101DA000884005423FD070073DD520680068800616
:101DB00006D4206800687FF00401084021680860AC
:101DC00020685149884201D1042023E020684F490E
:101DD000884201D140201DE020684D49884202D14F
:101DE0004FF4806016E020684A49884202D14FF4DF
:101DF00080400FE020684849884202D15FF480208B
:101E000008E020684549884202D15FF4800001E083
:101E10005FF0806042490860E06A00286FD02000CF
:101E2000E16A88476BE00220216C8840054245D07A
:101E3000B00743D520680068800609D42068006890
:101E40007FF00A01084021680860012084F8210021
:101E500020682D49884201D1022023E020682B49C7
:101E6000884201D120201DE020682949884202D102
:101E70004FF4007016E020682649884202D14FF4E2
:101E800000500FE020682449884202D15FF40030FE
:101E900008E020682149884202D15FF4001001E087
:101EA0005FF000701E490860002084F82000A06ADE
:101EB000002824D02000A16A884720E00820216C57
:101EC000884005421BD0300719D5206800687FF094
:101ED0000E010840216808600120216C8840E16BF8
:101EE00048600120A063012084F82100002084F8CC
:101EF0002000206B002802D02000216B884770BD95
:101F0000F8FFFDBF00000240080002401C00024034
:101F10003000024044000240580002406C00024081
:101F20000400024030B40124056CAC40C56B6C6009
:101F3000046863604468102C04D10468A2600468DB
:101F4000E16003E00468A1600468E26030BC7047AF
:101F500070B582B0040000252078C00740F184806D
:101F6000DFF8E006006810F00C0004280BD0DFF862
:101F7000D406006810F00C0008280ED1DFF8C40663
:101F80000068C00309D5DFF8B806006880036BD588
:101F90006068002868D1012008E26068B0F5803FE1
:101FA00008D1DFF89C06006850F48030DFF8901606
:101FB000086038E06068002810D1DFF88406006807
:101FC00030F48030DFF878160860DFF874060068B7
:101FD00030F48020DFF86816086024E06068B0F50F
:101FE000A02F10D1DFF85806006850F48020DFF8E9
:101FF00050160860DFF84806006850F48030DFF8BB
:10200000401608600FE0DFF83806006830F48030D2
:10201000DFF82C160860DFF82806006830F480200E
:10202000DFF81C160860606800280ED000F031FF51
:102030000500DFF80C060068800315D400F029FFC6
:10204000401B6528F5D30320B0E100F022FF050016
:10205000DFF8EC050068800306D500F01AFF401B8E
:102060006528F5D30320A1E1207880075ED5DFF84D
:10207000D405006810F00C0F0BD0DFF8C80500681D
:1020800010F00C0008281BD1DFF8B8050068C00369
:1020900016D4DFF8AC050068800704D52069012854
:1020A00001D0012082E1DFF8980500687FF0F80197
:1020B0000840616950EAC100DFF88415086035E026
:1020C000206900281FD00120DFF88815086000F083
:1020D000E0FE0500DFF868050068800706D400F020
:1020E000D8FE401B0328F5D303205FE1DFF850053D
:1020F00000687FF0F8010840616950EAC100DFF82C
:102100004015086012E00020DFF84815086000F074
:10211000C0FE0500DFF828050068800706D500F03E
:10212000B8FE401B0328F5D303203FE120780007C9
:102130002CD5A069002816D00120DFF81C150860F6
:1021400000F0A7FE0500DFF808050068800706D448
:1021500000F09FFE401B0328F5D3032026E1012059
:1021600000F05AFA12E00020DFF8EC14086000F0EA
:1021700090FE0500DFF8D8040068800706D500F05F
:1021800088FE401B0328F5D303200FE12078400789
:1021900040F1A9800026DFF8C4040068C00010D414
:1021A000DFF8B804006850F08050DFF8B014086021
:1021B000DFF8A804006810F080500090009801201B
:1021C0000600DFF89C040068C00516D4DFF8900410
:1021D000006850F48070DFF88814086000F059FE41
:1021E0000500DFF87C040068C00506D400F051FE4D
:1021F000401B6528F5D30320D8E0E068012808D10A
:10220000DFF86004006850F00100DFF8581408603F
:1022100039E0E068002811D1DFF848040068400880
:102220004000DFF840140860DFF8380400687FF0F1
:1022300004010840DFF82C14086024E0E068052859
:1022400010D1DFF82004006850F00400DFF8141407
:102250000860DFF81004006850F00100DFF8041493
:10226000086010E0DFF8FC03006840084000DFF879
:10227000F4130860DFF8EC0300687FF00401084005
:10228000DFF8E0130860E068002810D000F001FEDD
:102290000500DFF8D0030068800719D400F0F9FDCD
:1022A000401B41F289318842F3D303207EE000F0E5
:1022B000F0FD0500DFF8AC030068800708D500F0EA
:1022C000E8FD401B41F289318842F3D303206DE0E1
:1022D000F6B2012E07D1DFF88403006830F0805099
:1022E000DFF878130860E06900285ED0DFF8540357
:1022F000006810F00C00082855D0E06902283FD192
:102300000020DFF86413086000F0C3FD0500DFF86B
:1023100030030068800106D500F0BBFD401B032898
:10232000F5D3032042E0206AB0F5803F09D1DFF801
:102330001403006830F40030A1680843DFF8041388
:102340000860DFF80003006830F47410216A084365
:10235000616A0843DFF8EC1208600120DFF8081317
:10236000086000F096FD0500DFF8D40200688001E7
:102370001BD400F08EFD401B0328F5D3032015E08D
:102380000020DFF8E412086000F083FD0500DFF8AC
:10239000B0020068800108D500F07BFD401B0328D7
:1023A000F5D3032002E0012000E0002076BD70B5E7
:1023B00004000D000026DFF8B402006810F00700EA
:1023C000A84211D2DFF8A4020068C008C000284368
:1023D000DFF898120860DFF89402006810F0070038
:1023E000A84201D00120A4E0207880070AD5DFF8B8
:1023F000540200687FF0F0010840A1680843DFF84C
:10240000441208602078C00758D56068012806D1BA
:10241000DFF82C020068800312D4012089E0606894
:10242000022806D1DFF818020068800108D40120D4
:102430007FE0DFF80C020068800701D4012078E01B
:10244000DFF80002006880088000616808437D4969
:10245000086000F01EFD0600606801280ED1794872
:10246000006810F00C00042828D000F012FD801B3A
:1024700041F289318842F2D303205AE06068022891
:102480000ED17048006810F00C00082816D000F03B
:1024900000FD801B41F289318842F2D3032048E0DD
:1024A0006848006810F00C0F08D000F0F2FC801BA8
:1024B00041F289318842F3D303203AE06B48006847
:1024C00010F0070085420ED268480068C008C000BE
:1024D0002843664908606548006810F00700A84274
:1024E00001D0012025E02078400707D55548006835
:1024F00030F4E060E1680843524908602078000742
:1025000008D55048006830F46050216950EAC10095
:102510004C49086000F00EF855494A4A1268C2F367
:102520000312895CC84049490860002000F0BAFCE9
:10253000002070BD70B586B001A84E49102200F091
:102540000BFD4D480088ADF800000021002200235B
:10255000002400203B4D2D68290011F00C05042DAE
:1025600002D0082D03D01DE0374D28001CE001AD3E
:10257000C1F38346AD5D2C00CD030DD56D46314EC4
:102580003668C6F34046AD5D2A002F4D05FB04F5C5
:10259000B5FBF2F52B0003E0384D05FB04F52B00ED
:1025A000180001E0284D280006B070BD27480068DB
:1025B000704780B5FFF7FAFF3149224A1268C2F32B
:1025C0000222895CC84002BD80B5FFF7EFFF2C49AD
:1025D0001C4A1268C2F3C222895CC84002BD0F22A5
:1025E0000260184A126812F003024260154A12682B
:1025F00012F0F0028260134A126812F4E062C260C4
:10260000104A1268D20812F4E0620261174A126896
:1026100012F007020A60704781B00C490968C908C6
:102620004FF47A72B1FBF2F101FB00F1009100BFAF
:1026300000994A1E00920029F9D101B070470000AC
:10264000001002400410024000127A000400002032
:102650002410024000004242800442421C1002400A
:102660000070004020100240600042420020024002
:102670004050000830500008DA0E000800093D0004
:102680009050000810F007024E4B1B6819004FF6DF
:10269000FF0319404C4B53EA02231943494B19607D
:1026A000704748480068C0F302207047012110F0CD
:1026B0001F029140454A40B2430942F82310704737
:1026C00010B440B2002808D50A01414B40B210F0C6
:1026D0000F04234403F8042C03E00A013D4B40B2ED
:1026E0001A5410BC704770B4030013F00704D4F1FF
:1026F0000706052E01D3042001E0D4F10700261DB2
:10270000072E01D2002500E0E51E012616FA00F092
:10271000401E0840A8400121A940491E114008431D
:1027200070BC704710B50400601EB0F1807F01D30B
:1027300001200EE0601E284908600F215FF0FF3085
:10274000FFF7BEFF002025490860072024490860E4
:10275000002010BD10B504002000FFF793FF10BD4E
:10276000F8B504000D0016000027FFF79AFF0700D8
:10277000320029003800FFF7B6FF0100200040B208
:10278000FFF79EFFF1BD10B50400200040B2FFF737
:102790008DFF10BD10B504002000FFF7C3FF10BD72
:1027A000042806D10E49096851F004010C4A116051
:1027B00006E00B4909687FF004021140084A1160E5
:1027C000704700000CED00E00000FA0500E100E0B9
:1027D00018ED00E000E400E014E000E018E000E0A4
:1027E00010E000E02DE9F841002300240025002638
:1027F0005FF0000E5FF0000C6246102A80F04D8101
:102800005FF0010C1CFA02FC6346D1F800C013EA29
:102810000C0C64469C4240F03E81D1F804C0BCF1EF
:10282000000F3DD0BCF1010F24D0BCF1020F2BD022
:10283000BCF1030F4CD0BCF1110F1FD0BCF1120F33
:1028400028D0DFF88882C4452AD0DFF88482C445C6
:1028500026D0DFF88082C44522D0DFF87C82C445D0
:102860001ED0DFF87882C4451AD0DFF87482C445E0
:1028700016D031E0D1F80CC066462DE0D1F80CC07E
:102880001CF1040C664627E0D1F80CC01CF1080CC2
:10289000664621E0D1F80CC01CF10C0C66461BE02A
:1028A000D1F808C0BCF1000F03D15FF0040C6646FC
:1028B0000DE0D1F808C0BCF1010F04D15FF0080CA5
:1028C0006646036103E05FF0080C6646436103E07F
:1028D0005FF0000C6646FFE7FF2C01D8070000E020
:1028E000071DFF2C02D85FEA820E03E0B2F1080C4C
:1028F0005FEA8C0ED7F800C05FF00F0818FA0EF8E8
:102900003CEA080C16FA0EF858EA0C0CC7F800C09E
:10291000D1F804C05FEACC0C40F1BD80DFF8C4C13F
:10292000DCF800C05CF0010CDFF8B881C8F800C02A
:10293000DFF8B0C1DCF800C01CF00108CDF8008061
:10294000DDF800C0DFF8A0C15FEA92085CF828C09B
:1029500065465FF00F0C12F003085FFA88F85FEA33
:1029600088081CFA08FC35EA0C05DFF880C16045D0
:1029700002D15FF0000C16E0DFF874C1604502D1AF
:102980005FF0010C0FE0DFF86CC1604502D15FF031
:10299000020C08E0DFF860C1604502D15FF0030C73
:1029A00001E05FF0040C12F003085FFA88F85FEAB8
:1029B00088081CFA08FC5CEA0505DFF82CC15FEA10
:1029C00092084CF82850D1F804C05FEACC3C0AD5F4
:1029D000DFF828C1DCF800C054EA0C0CDFF81C81D9
:1029E000C8F800C009E0DFF814C1DCF800C03CEA18
:1029F000040CDFF80881C8F800C0D1F804C05FEA11
:102A00008C3C0AD5DFF8F8C0DCF800C054EA0C0CA6
:102A1000DFF8EC80C8F800C009E0DFF8E4C0DCF8BB
:102A200000C03CEA040CDFF8D880C8F800C0D1F838
:102A300004C05FEACC2C0AD5DFF8C8C0DCF800C0BF
:102A400054EA0C0CDFF8BC80C8F800C009E0DFF8DD
:102A5000B4C0DCF800C03CEA040CDFF8A880C8F879
:102A600000C0D1F804C05FEA8C2C0AD5DFF898C00A
:102A7000DCF800C054EA0C0CDFF88C80C8F800C009
:102A800009E0DFF884C0DCF800C03CEA040CDFF8A1
:102A90007880C8F800C0521CAFE6BDE8F1810200A2
:102AA000936889B20B4202D00123180001E0002391
:102AB0001800C0B27047D2B2002A02D089B20161B8
:102AC00002E089B20B04036170470000000011109E
:102AD0000000121000002110000022100000311030
:102AE00000003210181002400800014000080140A8
:102AF000000C01400010014000140140000401409E
:102B000004040140080401400C04014000B58DB0EC
:102B100000F0A6F900F033F800F0D1F800F0B1F8B9
:102B200000F073F800F086F8B948006801900121C0
:102B300001A800F079FAB7490860B748006800902A
:102B40000121684600F070FAB449086007A8B4494A
:102B5000142200F001FA002107A800F040FAB14960
:102B6000086002A8B049142200F0F6F9002102A87A
:102B700000F035FAAD49086000F02CFAFEE700B528
:102B80008FB0092005905FF48030069000200790F8
:102B90000120099001200B9002200C905FF48030FE
:102BA0000D905FF4E0100E9005A8FFF7D1F9002812
:102BB00003D0D3219E4800F051F90F20009002204D
:102BC0000190002002904FF4806003900020049058
:102BD00002216846FFF7EBFB002803D0E12194486F
:102BE00000F03CF9FFF7E2FC4FF47A71B0FBF1F032
:102BF000FFF7D0FD0420FFF7D3FD00220F215FF087
:102C0000FF30FFF7ADFD0FB000BD80B589488A49A0
:102C1000086006208849486040F6FF708649886051
:102C2000854800F08FFA002803D0F921804800F091
:102C300015F901BD80B58148814908605FF4E13034
:102C40007F49486000207E49886000207C49C86038
:102C500000207B4908610C207949486100207849AF
:102C6000886100207649C861002200217448FEF77F
:102C700077FA002804D04FF486716D4800F0EEF822
:102C800001BD80B56F48006850F001006D490860D3
:102C90006C48006810F001000090009800220521A7
:102CA0000E20FFF75DFD0E20FFF76DFD00220521D0
:102CB0000F20FFF755FD0F20FFF765FD01BD00B5A3
:102CC00085B06148006850F010005F4908605E48B8
:102CD000006810F01000009000985B48006850F009
:102CE0002000594908605848006810F02000009002
:102CF00000985548006850F0040053490860524855
:102D0000006810F00400009000984F48006850F0F0
:102D100008004D4908604C48006810F00800009019
:102D2000009801224FF400514848FFF7C4FE0122E9
:102D300048F202014648FFF7BEFE01224FF2F83189
:102D40004448FFF7B8FE00224FF480714048FFF777
:102D5000B2FE4FF400500190012002900020039039
:102D60000220049001A93948FFF73CFD02200190A0
:102D700011200290002003900220049001A9344801
:102D8000FFF730FD4FF2F830019011200290012042
:102D900003900320049001A92E48FFF723FD4FF470
:102DA0008070019001200290002003900320049085
:102DB00001A92748FFF716FD4FF4004001901120AC
:102DC0000290012003900320049001A92048FFF7FE
:102DD00009FD05B000BD10B5040000F004FA00F0D4
:102DE00042FA012000F012F9F9E710B5040000F0F2
:102DF00045FB00F0CBFB012000F008F9F9E710B526
:102E0000040020681449884201D100F03AF810BD4E
:102E1000A45000089C320020A8500008A0320020D6
:102E200008500008943200201C50000898320020FE
:102E3000DC4E0008003000407032002000380140B5
:102E400068310020141002401810024000100140A8
:102E500000080140000C014000080040FEE70000AF
:102E600080B50D48006850F010000B490860032041
:102E7000FFF770FC002000F015F8FEF7A7FD00201A
:102E800002BD074800680549097808180449086028
:102E90007047034800687047002002400800002087
:102EA000A832002070B588B004000025002600225A
:102EB00021001E20FFF754FC1E20FFF764FC1A4877
:102EC000006850F00400184908601748006810F0C6
:102ED00004000090009801A902A8FFF780FBFFF70B
:102EE00068FB400005001148B5FBF0F0401E0600ED
:102EF0000F481049086040F2E7300E49C8600D489D
:102F0000466000200B49086100200A498860094892
:102F100000F036FC002803D1064800F04EFC00E02B
:102F2000012008B070BD00001C10024040420F009C
:102F300000080040A831002062B38B0708D0521E61
:102F400011F8013B00F8013B00F024808B07F6D11B
:102F5000830740F0208000BF103A07D330B4B1E8B7
:102F60003810103AA0E83810F9D230BC530724BF0B
:102F7000B1E80810A0E8081044BF51F8043B40F83D
:102F8000043BD20724BF31F8022B20F8022B44BFA8
:102F90000B7803707047083A07D3B1E80810083A75
:102FA00040F8043B40F804CBF7D25307E4E70000B5
:102FB0000100002009B2842902D009B2CA1C1018ED
:102FC0007047EFF30580002801D0012000E00020C9
:102FD000C0B2704780B5FDF7B2F9002002BD3EB522
:102FE00004000D00B4F90800FFF7E2FF02A9019107
:102FF00000902B00226992B221686068FDF776F894
:10300000012801D0002000E002983EBD38B5040040
:103010000120B4FBF0F5002D01D0280000E00120D4
:10302000FDF766F9002032BD70B504000D00012DDA
:103030000FD103220021012000F014FD0600002E14
:1030400005D0002300220021300000F050FD3000A8
:1030500000E0002070BD70B582B004000D000020BB
:103060000090002C01D1802037E00020060015F1EF
:10307000010F03D15FF0FF30060009E0002D07D0FB
:103080000120B5FBF0F00600002E01D10120060062
:10309000FFF797FF002815D06A460021200000F0B6
:1030A00059FF012801D0FF2017E00098002813D015
:1030B0005FF08050DFF888100860BFF34F8FBFF3D8
:1030C0006F8F09E0002332000021200000F054FE41
:1030D000012801D0FF2000E0002076BD38B50400B3
:1030E000002500200090FFF76CFF002814D06946EF
:1030F000200000F0D5FD012801D0FF2017E0009846
:10310000002813D05FF08050DFF834100860BFF360
:103110004F8FBFF36F8F09E00023002200212000B2
:1031200000F0E5FC012801D0FF200500280032BD99
:1031300080B5FDF7EFFB012801D0FDF76EFF01BD63
:1031400004ED00E038B50400002C01D1012020E09E
:103150004CF6CC402168086045F255502168086063
:10316000606821684860A06821688860FFF791FE68
:1031700005002068C068002806D0FFF78AFE401BC3
:103180003128F6D3032004E04AF6AA20216808601B
:10319000002032BD01004AF6AA200A681060002013
:1031A00070470000BFF34F8F9848006810F4E0604C
:1031B0009749084395490860BFF34F8F00BFFDE76B
:1031C00010B50400E4B2002C06D001224FF4807147
:1031D0009048FFF770FC05E000224FF480718D48A5
:1031E000FFF769FC10BDF8B58B4800688B49C861D2
:1031F0008B488A49086000F023F9040000250A2D55
:1032000018DA3220FFF702FF00F01AF9A0420FD0BF
:1032100000224FF400518348FFF74DFC00220221A9
:103220007C48FFF748FC3220FFF7F0FEFFF7BAFFBB
:103230006D1CE4E74FF4966500267B4F32002900B1
:10324000380000F0ABFF00F0FBF84FF4165201001D
:10325000C9B2724800F0D6FF002800D1FEE76F48DF
:1032600001F088F8F1BD2DE9F84F00276F48FFF70E
:1032700091FF012202216748FFF71DFC4FF47A718C
:10328000664801F09EF80600F6B2002E40F0B680C7
:10329000002202215F48FFF70EFC6048C079062833
:1032A00029D15E48407A00280CD15C48C07A0A28AF
:1032B00005DA5A48C07A401C5D49086002E00020E7
:1032C0005B4908605548407A012806D15348C07AC6
:1032D000002802D10020564908605FF00809DFF895
:1032E00054A1DFF854B14A4651465846FFF724FE30
:1032F0000820070077E04948C079032873D1474880
:1033000000794D49C8557F1C03204B49C8557F1C87
:103310004248407A002814D104204749C8557F1CF0
:1033200000204549C8557F1C00204349C8557F1CD3
:1033300000204149C8557F1C02203F49C8557F1CC9
:1033400041E03648407A801E80463448C07A040006
:103350003D2C01DB3C20040035480068002832D0B9
:103360002000C0B240003449C8557F1C5FF0FF31D7
:1033700032480068FFF76FFE404614EB08018842B0
:103380001DDA29492A4A126878235A43114401EB6D
:10339000400131F8781C89B2090A274AD1557F1CAF
:1033A0002149234A126878235A43114401EB400112
:1033B00031F8781C204AD1557F1C401CDDE71F489E
:1033C0000068FFF78BFE38000100C9B21A4801F00F
:1033D00035F805001848C5557F1C280080B2000A42
:1033E0001549C8557F1C3A0013490C4800F0F7FFF7
:1033F0005FF0FF31094800F0E4FF05E0F6B2012E6E
:1034000002D0064800F0B6FFBDE8F18F0CED00E0F9
:103410000400FA05000801409C320020E831002039
:103420006831002000100140202B00207032002065
:10343000AC320020EE3100205C300020A0320020B1
:1034400010B582B0002401226946702001F03EF9D7
:1034500000280FD0002008280CDA64009DF8001026
:1034600001228240114201D1012100E000210C43E0
:10347000401CF0E72000C0B216BD00002DE9F0416D
:1034800041F610540025AD4E2A002100300000F016
:1034900085FE41F610560027DFF8A0823A00310081
:1034A000404600F07BFE00200A2813DA00213C2968
:1034B0000EDAA24A4FF43A7303FB00F31A440C23CA
:1034C00003FB01F31A4447F6FF735381491CEEE7EF
:1034D000401CE9E74FF400709849C1F8D8029848B9
:1034E0009649C1F8DC024FF480709449C1F8C005D8
:1034F00093489249C1F8C4054FF480508F49C1F8F0
:10350000A8088F488D49C1F8AC084FF400508B498A
:10351000C1F8900B8A488949C1F8940B202087494B
:10352000C1F8780E86488549C1F87C0E102085497F
:1035300008608348844908600820844908608048FE
:10354000834908604FF400408249086082488349FB
:1035500008604FF4804082490860794881490860DA
:103560004FF4004080490860754880490860002495
:103570000A2C09DA71484FF43A7101FB04F108444E
:1035800001F0D1FB641CF3E7BDE8F08138B5784861
:10359000FFF700FE00240A2C09DA68484FF43A715C
:1035A00001FB04F1084401F0BEFB641CF3E70024B6
:1035B0000A2C26DA61484FF43A7101FB04F1084401
:1035C000D0F8D002002808D05C484FF43A7101FBD3
:1035D00004F1084401F0B1FA11E000203C280EDAB1
:1035E00056494FF43A7202FB04F211440C2202FBDA
:1035F00000F2114442F20F724A81401CEEE7641C53
:10360000D6E701224FF400515A48FFF754FA40F22E
:10361000EE20FFF7FBFC00224FF400515548FFF766
:103620004AFA00240A2C2FDA002544484FF43A7154
:1036300001FB04F10844D0F8D002854222DA3F4869
:103640004FF43A7101FB04F108440C2101FB05F130
:1036500001443A484FF43A7202FB04F2104401F07C
:1036600080FA01280CD035484FF43A7101FB04F17F
:1036700008440C2101FB05F1084442F20F7141811D
:103680006D1CD2E7641CCDE75FF0FF313A4800685B
:10369000FFF7E1FC00200A284ADA00213C290ADA77
:1036A000364A782303FB00F31A4442F20F7322F8E0
:1036B0001130491CF2E700213C2937DA1F4A4FF448
:1036C0003A7303FB00F31A440C2303FB01F3D25CAF
:1036D000002A29D0194A4FF43A7303FB00F31A4425
:1036E0000C2303FB01F3D25C3D2A1DDA234A782325
:1036F00003FB00F31A44114B4FF43A7404FB00F43B
:1037000023440C2404FB01F41B5D02EB43020B4B2E
:103710004FF43A7404FB00F423440C2404FB01F43A
:1037200023445B8922F8023C491CC5E7401CB2E7F0
:1037300011480068FFF7D2FC31BD000010020020E4
:10374000000C014070130020741300205816002054
:103750005C16002040190020000801404419002098
:10376000281C00202C1C0020101F0020141F0020EB
:103770007032002000100140A0320020202B0020D9
:1037800010B50400002C01D1012014E094F83D0094
:10379000002805D1002084F83C00200000F00CF83F
:1037A000022084F83D00211D206800F0D4F801209B
:1037B00084F83D00002010BD704701000868C06813
:1037C00050F001000A68D0600868006850F00100FD
:1037D0000A6810600020704710B504002068006976
:1037E00080071AD52068C068800716D57FF00200D0
:1037F00021680861012020772068806910F0030F9C
:1038000003D0200000F0A4F805E0200000F09FF8AD
:10381000200000F09EF80020207720680069400713
:103820001AD52068C068400716D57FF004002168CB
:103830000861022020772068806910F4407F03D05F
:10384000200000F085F805E0200000F080F820005E
:1038500000F07FF8002020772068006900071AD563
:103860002068C068000716D57FF00800216808614D
:10387000042020772068C06910F0030F03D02000D7
:1038800000F066F805E0200000F061F8200000F08C
:1038900060F80020207720680069C0061AD52068EB
:1038A000C068C00616D57FF01000216808610820A6
:1038B00020772068C06910F4407F03D0200000F01A
:1038C00047F805E0200000F042F8200000F041F841
:1038D0000020207720680069C0070AD52068C068EA
:1038E000C00706D57FF00100216808612000FFF7BE
:1038F00086FA2068006900060AD52068C0680006BC
:1039000006D57FF0800021680861200001F03FFAB1
:103910002068006940060AD52068C068400606D5C0
:103920007FF0400021680861200000F013F8206853
:10393000006980060AD52068C068800606D57FF039
:10394000200021680861200001F020FA10BD7047B6
:10395000704770477047002203681A00194B98425D
:1039600008D0B0F1804F05D0174B984202D0174BCA
:10397000984204D17FF070031A404B681A43114BF0
:10398000984208D0B0F1804F05D00F4B984202D03A
:103990000E4B984203D132F44072CB681A437FF049
:1039A00080031A404B691A4302608B68C3620B683C
:1039B0008362044B984201D10B6903630123436185
:1039C00070470000002C0140000400400008004047
:1039D00070B504000D002600002E07D1502080F3A2
:1039E0001188BFF34F8FBFF36F8FFEE7FDF7DFFA4C
:1039F0003068F16B326C5143084470600020B06352
:103A00003068B0603068F16B491E326C5143084435
:103A1000F0605FF0FF3086F844005FF0FF3086F81A
:103A20004500002D12D13069002817D016F1100082
:103A3000FCF72DFE002811D05FF08050DFF85817FA
:103A40000860BFF34F8FBFF36F8F07E016F11000D0
:103A5000FDF7F4F916F12400FDF7F0F9FDF7C4FACB
:103A6000012070BD2DE9F84304000D001600002C64
:103A700007D1502080F31188BFF34F8FBFF36F8FB2
:103A8000FEE7002D02D10020804602E005FB04F095
:103A9000804618F14800FDF78FF80700002F0AD084
:103AA00017F14800814600973300DBB24A462900EF
:103AB000200000F003F83800BDE8F2832DE9F04162
:103AC00004000D0016001F00DDF81880002D02D143
:103AD000C8F8008001E0C8F80060C8F83C40C8F8A9
:103AE000405001214046FFF773FFBDE8F0812DE90A
:103AF000F74304000D001E005FF00008A146B9F175
:103B0000000F07D1502080F31188BFF34F8FBFF310
:103B10006F8FFEE7002D03D1D9F84000002801D1B6
:103B2000012000E00020C0B2002807D1502080F31F
:103B30001188BFF34F8FBFF36F8FFEE7022E03D1C3
:103B4000D9F83C00012801D1012000E00020C0B2DA
:103B5000002807D1502080F31188BFF34F8FBFF3A7
:103B60006F8FFEE7FCF7D6FE002802D102980028EE
:103B700001D1012000E00020C0B2002807D1502070
:103B800080F31188BFF34F8FBFF36F8FFEE7FDF710
:103B90000EFAD9F83800D9F83C10884201D3022E29
:103BA00028D132002900484600F036FA0700D9F83B
:103BB000240000280FD019F12400FCF768FD00282C
:103BC00014D05FF08050DFF8D0150860BFF34F8F3E
:103BD000BFF36F8F0AE0002F08D05FF08050DFF84E
:103BE000B8150860BFF34F8FBFF36F8FFDF7FCF977
:103BF000012053E00298002803D1FDF7F5F90020D9
:103C00004CE0B8F1000F04D16846FCF782FD0120BA
:103C10008046FDF7E9F9FCF7C6FBFDF7C8F999F90D
:103C2000440010F1010F02D1002089F8440099F9F5
:103C3000450010F1010F02D1002089F84500FDF781
:103C4000D3F902A96846FCF77BFD002820D148463D
:103C500000F090FA002815D0029919F11000FCF735
:103C6000FCFC484600F03FFAFCF7A5FB00288ED18B
:103C70005FF08050DFF820150860BFF34F8FBFF36F
:103C80006F8F84E7484600F02EFAFCF794FB7EE73E
:103C9000484600F028FAFCF78EFB0020BDE8FE83C2
:103CA0002DE9F04704000D00A046B8F1000F07D140
:103CB000502080F31188BFF34F8FBFF36F8FFEE763
:103CC000D8F84000002807D0502080F31188BFF3B7
:103CD0004F8FBFF36F8FFEE7D8F80000002803D1A5
:103CE000D8F80400002801D1012000E00020C0B273
:103CF000002807D1502080F31188BFF34F8FBFF306
:103D00006F8FFEE7FDF7AAF9EFF31180070050204F
:103D100080F31188BFF34F8FBFF36F8FD8F83890BF
:103D2000D8F83C00814520D298F945A019F101004E
:103D3000C8F838004FFA8AFA1AF1010F0ED1D8F8F4
:103D4000240000280ED018F12400FCF7A0FC002865
:103D500008D0002D06D00120286003E01AF10100F0
:103D600088F845000120060001E00020060087F3E6
:103D700011883000BDE8F0872DE9F44783B00400D6
:103D80000D001E000027A146B9F1000F07D15020F9
:103D900080F31188BFF34F8FBFF36F8FFEE7002DC5
:103DA00003D1D9F84000002801D1012000E0002013
:103DB000C0B2002807D1502080F31188BFF34F8F85
:103DC000BFF36F8FFEE7FCF7A5FD002802D1039833
:103DD000002801D1012000E00020C0B2002807D156
:103DE000502080F31188BFF34F8FBFF36F8FFEE732
:103DF000FDF7DDF8D9F838A0BAF1000F41D0D9F8B5
:103E00000C0080462900484600F055F9002E1FD1CD
:103E1000BAF10100C9F83800D9F80000002803D130
:103E2000FCF740FEC9F80400D9F81000002824D09F
:103E300019F11000FCF72BFC00281ED05FF0805019
:103E4000DFF854130860BFF34F8FBFF36F8F14E098
:103E5000C9F80C80D9F8240000280ED019F12400EC
:103E6000FCF715FC002808D05FF08050DFF828131D
:103E70000860BFF34F8FBFF36F8FFDF7B5F80120D8
:103E800065E00398002803D1FDF7AEF800205EE05E
:103E9000002F04D16846FCF73CFC01200700FDF729
:103EA000A3F8FCF780FAFDF782F899F9440010F1C5
:103EB000010F02D1002089F8440099F9450010F162
:103EC000010F02D1002089F84500FDF78DF803A904
:103ED0006846FCF735FC00282DD1484600F03AF939
:103EE000002822D0D9F80000002807D1FDF75FF89C
:103EF000D9F80400FCF721FDFDF776F8039919F1D4
:103F00002400FCF7AAFB484600F0EDF8FCF753FA52
:103F100000287FF46DAF5FF08050DFF87C120860FE
:103F2000BFF34F8FBFF36F8F62E7484600F0DBF8B7
:103F3000FCF741FA5CE7484600F0D5F8FCF73BFA9D
:103F4000484600F007F900283FF452AF002004B0C3
:103F5000BDE8F0872DE9F84F04000D001600A146DA
:103F6000B9F1000F07D1502080F31188BFF34F8FB4
:103F7000BFF36F8FFEE7002D03D1D9F84000002872
:103F800001D1012000E00020C0B2002807D150205C
:103F900080F31188BFF34F8FBFF36F8FFEE7FDF7FC
:103FA0005DF8EFF311808046502080F31188BFF355
:103FB0004F8FBFF36F8FD9F838A0BAF1000F24D01C
:103FC00099F944B02900484600F075F8BAF10100AB
:103FD000C9F838004FFA8BFB1BF1010F0ED1D9F84D
:103FE000100000280ED019F11000FCF750FB00283B
:103FF00008D0002E06D00120306003E01BF1010044
:1040000089F844000120070001E00020070088F340
:1040100011883800BDE8F28F2DE9F04704000D004B
:1040200016000027A06B8046206C002809D120686C
:1040300000283AD16068FCF7D9FC070000206060D6
:1040400033E0002E13D1D4F84090D4F808A04A46AB
:1040500029005046FEF770FFA068216C0844A0605C
:10406000A0686168884220D32068A0601DE0D4F871
:104070004090D4F80CA04A4629005046FEF75CFF59
:10408000E068216C49420844E060E06821688842A9
:1040900004D26068216C49420844E060022E04D1D9
:1040A000B8F1000F01D0B8F1010818F10100A063C8
:1040B0003800BDE8F087F8B504000D00206C00283A
:1040C00010D0E068216C0844E060E06861688842D4
:1040D00001D32068E060266CE768320039002800D0
:1040E000FEF72AFFF1BD70B50400FCF760FF94F9FC
:1040F00045506DB2012D0CDB606A002809D014F127
:104100002400FCF7C4FA002801D0FCF75EFB6D1E0A
:10411000EFE75FF0FF3084F84500FCF765FFFCF740
:1041200046FF94F9446076B2012E0CDB206900282A
:1041300009D014F11000FCF7AAFA002801D0FCF70E
:1041400044FB761EEFE75FF0FF3084F84400FCF795
:104150004BFF70BD38B50400FCF729FFA06B0028A9
:1041600002D10120050001E000200500FCF73CFF22
:10417000280032BD38B50400FCF719FFA06BE16BD5
:10418000884202D10120050001E000200500FCF773
:104190002BFF280032BD000004ED00E062F30F2287
:1041A00062F31F42401810F0030308D0C91A1FD34E
:1041B000DB0748BF00F8012D28BF20F8022D1300AF
:1041C00030B414461546103928BF20E93C00FAD80F
:1041D000490728BF20E90C0048BF40F8042D89009A
:1041E00028BF20F8022D48BF00F8012D30BC7047D1
:1041F000C91818BF00F8012DCB0728BF00F8012D02
:10420000704700002DE9F84304000D001600072058
:1042100084F82100002C08D0EDB2002D05D0EDB2BD
:10422000F82D02DA8348864201D3002021E00021E4
:10423000E069FEF710FF2068466000220021206838
:10424000FCF78EFF002803D00F217B48FEF706FE07
:1042500025710020607114275FF0000814F1060931
:10426000424639004846FFF799FF002084F82100B4
:104270000120BDE8F28381B001680968C968490678
:1042800002D5022180F8211001680968C968C906B1
:104290000DD5002100910168096809680091016845
:1042A0000968496800910099032180F8211001B044
:1042B000704710B5040094F82100022843D0032869
:1042C00057D12068C06B002803D0042084F8210057
:1042D00007E0206890F83A00202802D1052084F8F1
:1042E00021002068808D2168496B09684968401A5F
:1042F00060712068FDF724F8A0792179884214D1F3
:104300006179A01D00F09AF8002803D1002084F8FC
:10431000210006E094F82100032802D1062084F849
:104320002100E069FEF7DAFE0CE01422A11D2068EE
:10433000FCF7ABFF20680068C06850F010002168EF
:104340000968C86015E00020FEF73AFF2068FDF715
:1043500004F91422A11D2068FCF797FF206800686B
:10436000C06850F0100021680968C860E069FEF775
:10437000B5FE10BDF8B50400002084F8210000212E
:10438000E069FEF768FE14250026A71D320029000B
:104390003800FFF703FF002060711422A11D206880
:1043A000FCF773FF002803D050212348FEF756FD89
:1043B00020680068C06850F0100021680968C86073
:1043C000F1BD38B504000D002900E069FEF743FE99
:1043D000002801D0012001E094F8210032BD70B521
:1043E00004000D0016000021E069FEF734FE20688D
:1043F000FDF793F80120FEF709FE0120FEF7E0FE2D
:10440000002084F82100320092B229002068FCF7D5
:10441000F1FE002803D067210748FEF71FFD206842
:104420000068C0687FF01001084021680968C86012
:1044300070BD000021AA4400144F000810B402000F
:104440004FF6FF700B00591EDBB2002B10D0137813
:104450005840521C0023082BF4DAC40705D5400845
:1044600080F4204090F0010000E040085B1CF2E77F
:1044700080B210BC7047000081B00020009000980E
:104480000A2803DA0098401C0090F8E701B0704752
:1044900080B501224021DFF83002FEF70CFBFFF768
:1044A000EBFF01228021DFF82002FEF704FBFFF77B
:1044B000E3FF8021DFF81002FEF7F1FA002801D1B6
:1044C000002016E0002280217F48FEF7F4FAFFF773
:1044D000D3FF80217C48FEF7E2FA002801D00020BB
:1044E00007E0002240217848FEF7E5FAFFF7C4FF15
:1044F000012002BD80B5002240217348FEF7DBFA9F
:10450000FFF7BAFF002280216F48FEF7D4FAFFF7C9
:10451000B3FF012240216C48FEF7CDFAFFF7ACFF54
:10452000012280216848FEF7C6FAFFF7A5FFFFF7D2
:10453000A3FF01BD80B5002240216348FEF7BBFA0E
:10454000FFF79AFF002280215F48FEF7B4FAFFF7D9
:1045500093FF012240215C48FEF7ADFAFFF78CFF84
:10456000002240215848FEF7A6FAFFF785FF01BD5B
:1045700080B5002240215448FEF79DFAFFF77CFFEA
:10458000012280215048FEF796FAFFF775FF0122BD
:1045900040214D48FEF78FFAFFF76EFF00224021C1
:1045A0004948FEF788FAFFF767FF01BD10B5002202
:1045B00040214548FEF77FFAFFF75EFF0122802188
:1045C0004148FEF778FAFFF757FF012240213E48A5
:1045D000FEF771FA002004000A2C09DA80213A481B
:1045E000FEF75DFA002803D0FFF746FF641CF3E7EF
:1045F000002240213448FEF75EFAFFF73DFF0A2C07
:1046000001D0012000E00020C0B210BD38B5040088
:1046100008252800451EC0B200281ED000224021D7
:104620002948FEF748FAFFF727FF200605D50122A3
:1046300080212548FEF73FFA04E00022802122482D
:10464000FEF739FA6400FFF717FF012240211E48E8
:10465000FEF731FAFFF710FFDBE7002240211A488E
:10466000FEF729FAFFF708FF31BD38B50824002509
:10467000012280211448FEF71EFA2000441EC0B219
:10468000002817D06D00002240210F48FEF713FAD2
:10469000FFF7F2FE012240210B48FEF70CFAFFF76C
:1046A000EBFE80210848FEF7FAF90028E5D055F026
:1046B0000105E2E7002240210348FEF7FCF9FFF77D
:1046C000DBFE2800C0B232BD000C0140F8B504008A
:1046D0000D0016000127002D01D100202AE0FCF773
:1046E00066FCFFF7D5FE002801D10020070054F03A
:1046F0000100C0B2FFF78AFFFFF758FF002802D180
:104700000020070011E03000461EC0B200280CD087
:10471000FFF7ABFF28706D1CF6B2002E02D1FFF739
:1047200027FFF0E7FFF706FFEDE7FFF7E3FEFCF7F3
:104730005BFC3800F2BD000081B000216E4A1160C0
:104740006E4909686E4AB1FBF2F101FB00F100917C
:1047500069490968009A9142FAD301B07047020092
:104760000020654B186065480068654BB0FBF3F0AE
:104770004143D2F8DC028068D2F8D832184203D024
:104780005D4800688842F4D35C4800685C4BB0FB2D
:10479000F3F0594B1B68B3FBF0F0704702000020A8
:1047A000554B186055480068554BB0FBF3F041433A
:1047B000D2F8DC028068D2F8D832184203D14E48D1
:1047C00000688842F4D34D4800684D4BB0FBF3F0CD
:1047D000494B1B68B3FBF0F0704738B50400012566
:1047E0004848006850F080704649086000204249FF
:1047F00008604548006850F001004349086042489D
:10480000006850F0011040490860D4F8DC0280686C
:10481000D4F8D812084216D10122D4F8D81289B29D
:10482000D4F8DC02FEF747F94FF47A712000FFF765
:10483000B5FFB0F57A7F02D1032005004BE04FF4BD
:104840007A70FFF779FF72B60022D4F8D81289B2D5
:10485000D4F8DC02FEF72FF94FF47A712000FFF74D
:104860007EFFB0F57A7F02D10220050033E062B608
:104870004FF4FA70FFF760FF72B60122D4F8D81235
:1048800089B2D4F8DC02FEF716F94FF47A712000F1
:10489000FFF784FFC4F8D402D4F8D402B0F57A7FCD
:1048A00002D10320050016E03C212000FFF757FF4E
:1048B0003C2802D1042005000DE0D4F8D40210F108
:1048C000F0012000FFF76AFFD4F8D412F0318842DB
:1048D00001D10320050062B60122D4F8D81289B2B2
:1048E000D4F8DC02FEF7E7F84FF4FA70FFF724FF84
:1048F0002800C0B232BD0000041000E00400002017
:1049000040420F00FCED00E0001000E038B504006C
:104910000D000022D4F8D81289B2D4F8DC02FEF7D8
:10492000CAF84FF47A712000FFF719FF002D0BD160
:104930003C20FFF701FF0122D4F8D81289B2D4F845
:10494000DC02FEF7B8F80DE00120FFF7F5FE0122CA
:10495000D4F8D81289B2D4F8DC02FEF7ACF83C20C7
:10496000FFF7EAFE4FF47A712000FFF717FF0120EE
:10497000FFF7E2FE31BD38B504000022D4F8D812AA
:1049800089B2D4F8DC02FEF796F84FF47A71200071
:10499000FFF7E5FE0120FFF7CFFE0122D4F8D81281
:1049A00089B2D4F8DC02FEF786F8D4F8D40210F10C
:1049B0003C012000FFF7F2FE0500D4F8D4020F30CE
:1049C000A84207DAD4F8D4023D30401BFFF7B4FE0A
:1049D000002006E0D4F8D4023D30401BFFF7ACFEC7
:1049E000012032BD38B504000D0072B615F001018A
:1049F0002000FFF78BFF15F002012000FFF786FF74
:104A000015F004012000FFF781FF15F008012000D8
:104A1000FFF77CFF15F010012000FFF777FF15F07E
:104A200020012000FFF772FF15F040012000FFF782
:104A30006DFF15F080012000FFF768FF62B631BD01
:104A400038B50400002572B62000FFF794FF002857
:104A500001D055F001052000FFF78DFF002801D09F
:104A600055F002052000FFF786FF002801D055F021
:104A700004052000FFF77FFF002801D055F008054E
:104A80002000FFF778FF002801D055F01005200026
:104A9000FFF771FF002801D055F020052000FFF737
:104AA0006AFF002801D055F040052000FFF763FFA2
:104AB000002801D055F0800562B6EDB2280032BD65
:104AC00070B40200002000248C4217DA155D2B0020
:104AD0000025082D10DADBB2C0B290EA0306F60713
:104AE00004D5C0B2400890F08C0001E0C0B240088C
:104AF000DBB25B086D1CECE7641CE5E7C0B270BC80
:104B00007047F8B504000D0016000027B74205DA1B
:104B10002000FFF795FFE8557F1CF7E7F1BDF8B5DA
:104B200004000D0016000027B74205DAE95D2000F9
:104B3000FFF758FF7F1CF7E7F1BD38B504002000F0
:104B4000FFF74BFE0500C0B2012807D1CC212000A1
:104B5000FFF748FF44212000FFF744FF2800C0B2C0
:104B600032BDFEB504000D0068460021002200237E
:104B70000EC00C382000FFF730FE0600C0B201283E
:104B800035D155212000FFF72DFF0822691C200098
:104B9000FFF7C5FFBE212000FFF724FF0922694669
:104BA0002000FFF7AEFF9DF80600FF2806D19DF814
:104BB0000700FF2802D10420060018E009216846FA
:104BC000FFF77EFF002802D0052006000FE09DF8C9
:104BD000010007009DF8000050EA072764204743C2
:104BE000102097FBF0F068819DF8030028703000DA
:104BF000C0B2FEBD2DE9F04F83B004000D000426C5
:104C000001275FF0000B5FF000085FF0010A200051
:104C1000FFF7E3FD0600C0B2012802D03000C0B2A9
:104C20007FE0F0212000FFF7DDFE72B62000FFF7E5
:104C3000A2FE00902000FFF79EFE019062B6009851
:104C4000012802D1019801284DD00098019988428D
:104C500002D0009881461DE0D4F8E40287420ADAC7
:104C600015F8080010EA0A0F02D05FF001090BE006
:104C70005FF0000908E0D4F8E402874202D15FF057
:104C8000010901E05FF000095FFA89F9B9F1000F4D
:104C900000D1BB465FFA89F9B9F1010F06D115F8C9
:104CA00008005AEA000005F8080005E015F80800B9
:104CB00030EA0A0005F8080072B65FFA89F9494639
:104CC0002000FFF723FE62B67F1C5FEA4A0A5FFA04
:104CD0008AFABAF1000F03D118F1010801208246C7
:104CE000B8F1080FA1DB412F10DB08212800FFF7E6
:104CF000E7FE00280AD1C4F8E4B2D4F8E4020028A0
:104D000002D10620060001E001200600F6B2012EC5
:104D100002D12878002802D10020C4F8E402300033
:104D2000C0B2BDE8FE8F2DE9F04383B0040000203F
:104D3000C4F8E40200263C2E24DA69462000FFF77E
:104D400059FF0500EDB22800012807D0062813D12D
:104D5000C4F8D0623C260120050011E00827E8468F
:104D60000C2000FB06F0204410F101093A004146F6
:104D70004846FEF7E1F803E03C260020C4F8D002E4
:104D8000761CD8E72800C0B2BDE8FE8370477047A4
:104D9000000000001348006850F00100114908604D
:104DA00011480068114908400F4908600D48006823
:104DB0000F4908400B4908600A48006830F4802019
:104DC000084908600848006830F4FE000649086099
:104DD0005FF41F00074908605FF000600649086043
:104DE0007047000000100240041002400000FFF86D
:104DF000FFFFF6FE0810024008ED00E07047FEE7F6
:104E0000FEE7FEE7FEE7704780B5FEF791F901BDCA
:104E100080B50C48FCF7BCFF01BD80B50A48FCF723
:104E2000B7FF01BD80B50948FEF7D6FC01BD80B5CE
:104E30000748FFF720FA0748FCF7C6FA0448FFF7CF
:104E400038FA01BD24310020E0300020A8310020D4
:104E5000E831002068310020443A5C576F726B5C87
:104E60006F6C645C536F756E645C7372635C536FDC
:104E7000756E645C44414C4C41535C44616C6C61A4
:104E8000735C5372635C73746D3332663178785F30
:104E900068616C5F6D73702E6300000019E050F85C
:104EA000041BCB0744BFA9F101035918121F0023AB
:104EB000042A41F8043BF9D25FEA827C0B4604D510
:104EC0004FF0000CA1F800C09B1CD10744BF00218B
:104ED000197050F8042B002AE1D17047443A5C570E
:104EE0006F726B5C6F6C645C536F756E645C737235
:104EF000635C536F756E645C44414C4C41535C443D
:104F0000616C6C61735C5372635C6D61696E2E637E
:104F100000000000443A5C576F726B5C6F6C645C1D
:104F2000536F756E645C7372635C536F756E645C13
:104F300044414C4C41535C44616C6C61735C5372F2
:104F4000635C4D6F646275732E63000010B450F89B
:104F5000041B79B10268436802440830DC0744BF8F
:104F6000A9F10104E31852F8044B43F8044B091F5C
:104F7000F9D1ECE710BC704710B5074979441831F6
:104F8000064C7C44163404E00A68081D1144884726
:104F90000146A142F8D110BD080000002800000021
:104FA000FDFEFFFFE03000001002002000000000C6
:104FB0009DFFFFFF0C000000CC000000000000205F
:104FC0000000000000F00BF8002801D0FFF7D4FF2C
:104FD0000020C046C046FDF799FD00F002F8012010
:104FE000704700F001B800000746384600F002F8AC
:104FF000FBE7000080B5C046C046024A11001820F9
:10500000ABBEFBE72600020060500008D72D000869
:105010000000000000000000800000006C5000084C
:10502000EB2D0008FDFF00000000000080000000E4
:1050300002030405060708090A0B0C0D0E0F1010D9
:105040000000000000000000010203040607080938
:105050000148804701480047954D000879500008F5
:105060006D61696E5461736B00000000706F6C6C51
:10507000696E675461736B00C046C046C046C04647
:10508000FFF7A0FFAAAAAAAA00A24A0401000000F2
:10509000000000000102030449444C4500000000E8
:1050A000080000000000000000000000F0E300E045
:1050B000FFF7FEBFFFF7FEBFFFF7FEBFFFF7FEBF24
:1050C000FFF7FEBFFFF7FEBFFFF7FEBFFFF7FEBF14
:1050D000FFF7FEBFFFF7FEBFFFF7FEBFFFF7FEBF04
:1050E000FFF7FEBFFFF7FEBFFFF7FEBFFFF7FEBFF4
:1050F000FFF7FEBFFFF7FEBFFFF7FEBFFFF7FEBFE4
:10510000FFF7FEBFFFF7FEBFFFF7FEBFFFF7FEBFD3
:10511000FFF7FEBFFFF7FEBFFFF7FEBFFFF7FEBFC3
:10512000FFF7FEBFFFF7FEBFFFF7FEBFFFF7FEBFB3
:10513000FFF7FEBFFFF7FEBFFFF7FEBFFFF7FEBFA3
:0C514000FFF7FEBFFFF7FEBFFFF7FEBF4A
:040000050800507926
:00000001FF
